{
  "contractName": "Luggage",
  "abi": [
    {
      "constant": true,
      "inputs": [],
      "name": "name",
      "outputs": [
        {
          "name": "",
          "type": "string"
        }
      ],
      "payable": false,
      "stateMutability": "view",
      "type": "function",
      "signature": "0x06fdde03"
    },
    {
      "constant": true,
      "inputs": [],
      "name": "requestCount",
      "outputs": [
        {
          "name": "",
          "type": "uint256"
        }
      ],
      "payable": false,
      "stateMutability": "view",
      "type": "function",
      "signature": "0x5badbe4c"
    },
    {
      "constant": true,
      "inputs": [
        {
          "name": "",
          "type": "uint256"
        }
      ],
      "name": "requests",
      "outputs": [
        {
          "name": "id",
          "type": "uint256"
        },
        {
          "name": "passenger",
          "type": "address"
        },
        {
          "name": "name",
          "type": "string"
        },
        {
          "name": "weight",
          "type": "uint256"
        },
        {
          "name": "categories",
          "type": "bytes4"
        },
        {
          "name": "expired",
          "type": "bool"
        }
      ],
      "payable": false,
      "stateMutability": "view",
      "type": "function",
      "signature": "0x81d12c58"
    },
    {
      "inputs": [],
      "payable": false,
      "stateMutability": "nonpayable",
      "type": "constructor",
      "signature": "constructor"
    },
    {
      "anonymous": false,
      "inputs": [
        {
          "indexed": false,
          "name": "id",
          "type": "uint256"
        },
        {
          "indexed": false,
          "name": "passenger",
          "type": "address"
        },
        {
          "indexed": false,
          "name": "name",
          "type": "string"
        },
        {
          "indexed": false,
          "name": "weight",
          "type": "uint256"
        },
        {
          "indexed": false,
          "name": "categories",
          "type": "bytes4"
        },
        {
          "indexed": false,
          "name": "expired",
          "type": "bool"
        }
      ],
      "name": "requestCreated",
      "type": "event",
      "signature": "0xa78bafcada84d00d904aa5662e1ca3a0b007885ab08c433fb18652bcaa857ac2"
    },
    {
      "anonymous": false,
      "inputs": [
        {
          "indexed": false,
          "name": "id",
          "type": "uint256"
        },
        {
          "indexed": false,
          "name": "passenger",
          "type": "address"
        },
        {
          "indexed": false,
          "name": "name",
          "type": "string"
        },
        {
          "indexed": false,
          "name": "weight",
          "type": "uint256"
        },
        {
          "indexed": false,
          "name": "categories",
          "type": "bytes4"
        },
        {
          "indexed": false,
          "name": "expired",
          "type": "bool"
        }
      ],
      "name": "requestAccepted",
      "type": "event",
      "signature": "0xc79a298973bb720300371553ce7a9ac9ce228226225051bd64a4989a039ceef9"
    },
    {
      "constant": false,
      "inputs": [
        {
          "name": "_name",
          "type": "string"
        },
        {
          "name": "_weight",
          "type": "uint256"
        },
        {
          "name": "_categories",
          "type": "bytes4"
        }
      ],
      "name": "createRequest",
      "outputs": [],
      "payable": false,
      "stateMutability": "nonpayable",
      "type": "function",
      "signature": "0x53344c09"
    },
    {
      "constant": false,
      "inputs": [
        {
          "name": "_id",
          "type": "uint256"
        }
      ],
      "name": "acceptRequest",
      "outputs": [],
      "payable": true,
      "stateMutability": "payable",
      "type": "function",
      "signature": "0x4ba1f098"
    }
  ],
  "bytecode": "0x6080604052600060025534801561001557600080fd5b506040805190810160405280601081526020017f4c7567676167652d436f6e74726163740000000000000000000000000000000081525060009080519060200190610061929190610067565b5061010c565b828054600181600116156101000203166002900490600052602060002090601f016020900481019282601f106100a857805160ff19168380011785556100d6565b828001600101855582156100d6579182015b828111156100d55782518255916020019190600101906100ba565b5b5090506100e391906100e7565b5090565b61010991905b808211156101055760008160009055506001016100ed565b5090565b90565b6110c1806200011c6000396000f3fe60806040526004361061006d576000357c0100000000000000000000000000000000000000000000000000000000900463ffffffff16806306fdde03146100725780634ba1f0981461010257806353344c09146101305780635badbe4c1461022b57806381d12c5814610256575b600080fd5b34801561007e57600080fd5b5061008761039b565b6040518080602001828103825283818151815260200191508051906020019080838360005b838110156100c75780820151818401526020810190506100ac565b50505050905090810190601f1680156100f45780820380516001836020036101000a031916815260200191505b509250505060405180910390f35b61012e6004803603602081101561011857600080fd5b8101908080359060200190929190505050610439565b005b34801561013c57600080fd5b506102296004803603606081101561015357600080fd5b810190808035906020019064010000000081111561017057600080fd5b82018360208201111561018257600080fd5b803590602001918460018302840111640100000000831117156101a457600080fd5b91908080601f016020809104026020016040519081016040528093929190818152602001838380828437600081840152601f19601f8201169050808301925050505050505091929192908035906020019092919080357bffffffffffffffffffffffffffffffffffffffffffffffffffffffff19169060200190929190505050610abc565b005b34801561023757600080fd5b50610240610e52565b6040518082815260200191505060405180910390f35b34801561026257600080fd5b5061028f6004803603602081101561027957600080fd5b8101908080359060200190929190505050610e58565b604051808781526020018673ffffffffffffffffffffffffffffffffffffffff1673ffffffffffffffffffffffffffffffffffffffff16815260200180602001858152602001847bffffffffffffffffffffffffffffffffffffffffffffffffffffffff19167bffffffffffffffffffffffffffffffffffffffffffffffffffffffff1916815260200183151515158152602001828103825286818151815260200191508051906020019080838360005b8381101561035b578082015181840152602081019050610340565b50505050905090810190601f1680156103885780820380516001836020036101000a031916815260200191505b5097505050505050505060405180910390f35b60008054600181600116156101000203166002900480601f0160208091040260200160405190810160405280929190818152602001828054600181600116156101000203166002900480156104315780601f1061040657610100808354040283529160200191610431565b820191906000526020600020905b81548152906001019060200180831161041457829003601f168201915b505050505081565b610441610f82565b6001600083815260200190815260200160002060c06040519081016040529081600082015481526020016001820160009054906101000a900473ffffffffffffffffffffffffffffffffffffffff1673ffffffffffffffffffffffffffffffffffffffff1673ffffffffffffffffffffffffffffffffffffffff168152602001600282018054600181600116156101000203166002900480601f0160208091040260200160405190810160405280929190818152602001828054600181600116156101000203166002900480156105595780601f1061052e57610100808354040283529160200191610559565b820191906000526020600020905b81548152906001019060200180831161053c57829003601f168201915b50505050508152602001600382015481526020016004820160009054906101000a90047c0100000000000000000000000000000000000000000000000000000000027bffffffffffffffffffffffffffffffffffffffffffffffffffffffff19167bffffffffffffffffffffffffffffffffffffffffffffffffffffffff191681526020016004820160049054906101000a900460ff16151515158152505090506000816020015190506000826000015111801561061d5750600254826000015111155b1515610691576040517f08c379a000000000000000000000000000000000000000000000000000000000815260040180806020018281038252600a8152602001807f496e76616c69642049440000000000000000000000000000000000000000000081525060200191505060405180910390fd5b8160600151341015151561070d576040517f08c379a000000000000000000000000000000000000000000000000000000000815260040180806020018281038252600d8152602001807f496e76616c69642056616c75650000000000000000000000000000000000000081525060200191505060405180910390fd5b8160a00151151515610787576040517f08c379a00000000000000000000000000000000000000000000000000000000081526004018080602001828103825260188152602001807f5265717565737420616c7265616479206163636570746564000000000000000081525060200191505060405180910390fd5b3373ffffffffffffffffffffffffffffffffffffffff168173ffffffffffffffffffffffffffffffffffffffff161415151561082b576040517f08c379a000000000000000000000000000000000000000000000000000000000815260040180806020018281038252601b8152602001807f5265717565737465722069732073616d652061732073656e646572000000000081525060200191505060405180910390fd5b60018260a001901515908115158152505081600160008581526020019081526020016000206000820151816000015560208201518160010160006101000a81548173ffffffffffffffffffffffffffffffffffffffff021916908373ffffffffffffffffffffffffffffffffffffffff16021790555060408201518160020190805190602001906108bd929190610ff0565b506060820151816003015560808201518160040160006101000a81548163ffffffff02191690837c01000000000000000000000000000000000000000000000000000000009004021790555060a08201518160040160046101000a81548160ff0219169083151502179055509050503373ffffffffffffffffffffffffffffffffffffffff166108fc349081150290604051600060405180830381858888f19350505050158015610972573d6000803e3d6000fd5b507fc79a298973bb720300371553ce7a9ac9ce228226225051bd64a4989a039ceef9600254828460400151856060015186608001518760a00151604051808781526020018673ffffffffffffffffffffffffffffffffffffffff1673ffffffffffffffffffffffffffffffffffffffff16815260200180602001858152602001847bffffffffffffffffffffffffffffffffffffffffffffffffffffffff19167bffffffffffffffffffffffffffffffffffffffffffffffffffffffff1916815260200183151515158152602001828103825286818151815260200191508051906020019080838360005b83811015610a78578082015181840152602081019050610a5d565b50505050905090810190601f168015610aa55780820380516001836020036101000a031916815260200191505b5097505050505050505060405180910390a1505050565b60008351111515610b35576040517f08c379a000000000000000000000000000000000000000000000000000000000815260040180806020018281038252600c8152602001807f496e76616c6964204e616d65000000000000000000000000000000000000000081525060200191505060405180910390fd5b600082111515610bad576040517f08c379a000000000000000000000000000000000000000000000000000000000815260040180806020018281038252600e8152602001807f496e76616c69642057656967687400000000000000000000000000000000000081525060200191505060405180910390fd5b60026000815480929190600101919050555060c06040519081016040528060025481526020013373ffffffffffffffffffffffffffffffffffffffff168152602001848152602001838152602001827bffffffffffffffffffffffffffffffffffffffffffffffffffffffff19168152602001600015158152506001600060025481526020019081526020016000206000820151816000015560208201518160010160006101000a81548173ffffffffffffffffffffffffffffffffffffffff021916908373ffffffffffffffffffffffffffffffffffffffff1602179055506040820151816002019080519060200190610ca9929190610ff0565b506060820151816003015560808201518160040160006101000a81548163ffffffff02191690837c01000000000000000000000000000000000000000000000000000000009004021790555060a08201518160040160046101000a81548160ff0219169083151502179055509050507fa78bafcada84d00d904aa5662e1ca3a0b007885ab08c433fb18652bcaa857ac2600254338585856000604051808781526020018673ffffffffffffffffffffffffffffffffffffffff1673ffffffffffffffffffffffffffffffffffffffff16815260200180602001858152602001847bffffffffffffffffffffffffffffffffffffffffffffffffffffffff19167bffffffffffffffffffffffffffffffffffffffffffffffffffffffff1916815260200183151515158152602001828103825286818151815260200191508051906020019080838360005b83811015610e0e578082015181840152602081019050610df3565b50505050905090810190601f168015610e3b5780820380516001836020036101000a031916815260200191505b5097505050505050505060405180910390a1505050565b60025481565b60016020528060005260406000206000915090508060000154908060010160009054906101000a900473ffffffffffffffffffffffffffffffffffffffff1690806002018054600181600116156101000203166002900480601f016020809104026020016040519081016040528092919081815260200182805460018160011615610100020316600290048015610f305780601f10610f0557610100808354040283529160200191610f30565b820191906000526020600020905b815481529060010190602001808311610f1357829003601f168201915b5050505050908060030154908060040160009054906101000a90047c010000000000000000000000000000000000000000000000000000000002908060040160049054906101000a900460ff16905086565b60c06040519081016040528060008152602001600073ffffffffffffffffffffffffffffffffffffffff168152602001606081526020016000815260200160007bffffffffffffffffffffffffffffffffffffffffffffffffffffffff191681526020016000151581525090565b828054600181600116156101000203166002900490600052602060002090601f016020900481019282601f1061103157805160ff191683800117855561105f565b8280016001018555821561105f579182015b8281111561105e578251825591602001919060010190611043565b5b50905061106c9190611070565b5090565b61109291905b8082111561108e576000816000905550600101611076565b5090565b9056fea165627a7a7230582066017c357127522b485ad5122acc829f6de889e857ef50591e7417ab912404280029",
  "source": "pragma solidity ^0.5.0;\r\n\r\ncontract Luggage {\r\n    string public name;\r\n    enum Categories {food,clothing,electronics,other}\r\n    struct request {\r\n        uint id;\r\n        address payable passenger;\r\n        string name;\r\n        uint weight; // Assumes every bag is separate\r\n        bytes4 categories;\r\n        bool expired;\r\n    }\r\n\r\n    event requestCreated (\r\n        uint id,\r\n        address payable passenger,\r\n        string name,\r\n        uint weight,\r\n        bytes4 categories,\r\n        bool expired\r\n    );\r\n\r\n    event requestAccepted (\r\n        uint id,\r\n        address payable passenger,\r\n        string name,\r\n        uint weight,\r\n        bytes4 categories,\r\n        bool expired\r\n    );\r\n    mapping(uint => request) public requests;\r\n\r\n    uint public requestCount = 0;\r\n\r\n    constructor() public {\r\n        name = \"Luggage-Contract\";\r\n    }\r\n\r\n    function createRequest(string memory _name,uint _weight,bytes4 _categories) public {\r\n        require(bytes(_name).length > 0,\"Invalid Name\");\r\n        require(_weight > 0,\"Invalid Weight\");\r\n        requestCount ++;\r\n        requests[requestCount] = request(requestCount, msg.sender, _name,_weight,_categories,false);\r\n        emit requestCreated(requestCount, msg.sender, _name,_weight,_categories,false);\r\n    }\r\n\r\n    function acceptRequest(uint _id) public payable {\r\n        request memory _request = requests[_id];        //Get the request\r\n        address payable _payer = _request.passenger;    //Get the person making the payment\r\n        require(_request.id > 0 && _request.id <= requestCount, \"Invalid ID\");\r\n        require(msg.value >= _request.weight, \"Invalid Value\");\r\n        require(!_request.expired, \"Request already accepted\");\r\n        require(_payer != msg.sender, \"Requester is same as sender\");\r\n        _request.expired = true;\r\n        requests[_id] = _request;\r\n        address(msg.sender).transfer(msg.value);\r\n        emit requestAccepted(requestCount, _payer, _request.name, _request.weight, _request.categories, _request.expired);\r\n    }\r\n\r\n}",
  "sourcePath": "E:/PES/Rackathon/Luggage-Blockchain/src/contracts/Luggage.sol",
  "compiler": {
    "name": "solc",
    "version": "0.5.0+commit.1d4f565a.Emscripten.clang"
  },
  "schemaVersion": "3.0.2",
  "updatedAt": "2019-11-09T14:04:03.857Z",
  "devdoc": {
    "methods": {}
  },
  "userdoc": {
    "methods": {}
  }
}