{
  "contractName": "Luggage",
  "abi": [
    {
      "constant": true,
      "inputs": [],
      "name": "name",
      "outputs": [
        {
          "name": "",
          "type": "string"
        }
      ],
      "payable": false,
      "stateMutability": "view",
      "type": "function",
      "signature": "0x06fdde03"
    },
    {
      "constant": true,
      "inputs": [],
      "name": "requestCount",
      "outputs": [
        {
          "name": "",
          "type": "uint256"
        }
      ],
      "payable": false,
      "stateMutability": "view",
      "type": "function",
      "signature": "0x5badbe4c"
    },
    {
      "constant": true,
      "inputs": [
        {
          "name": "",
          "type": "uint256"
        }
      ],
      "name": "requests",
      "outputs": [
        {
          "name": "id",
          "type": "uint256"
        },
        {
          "name": "acceptor",
          "type": "address"
        },
        {
          "name": "name",
          "type": "string"
        },
        {
          "name": "weight",
          "type": "uint256"
        },
        {
          "name": "categories",
          "type": "bytes4"
        },
        {
          "name": "flightNo",
          "type": "string"
        },
        {
          "name": "expired",
          "type": "bool"
        }
      ],
      "payable": false,
      "stateMutability": "view",
      "type": "function",
      "signature": "0x81d12c58"
    },
    {
      "inputs": [],
      "payable": false,
      "stateMutability": "nonpayable",
      "type": "constructor",
      "signature": "constructor"
    },
    {
      "anonymous": false,
      "inputs": [
        {
          "indexed": false,
          "name": "id",
          "type": "uint256"
        },
        {
          "indexed": false,
          "name": "acceptor",
          "type": "address"
        },
        {
          "indexed": false,
          "name": "name",
          "type": "string"
        },
        {
          "indexed": false,
          "name": "weight",
          "type": "uint256"
        },
        {
          "indexed": false,
          "name": "categories",
          "type": "bytes4"
        },
        {
          "indexed": false,
          "name": "flightNo",
          "type": "string"
        },
        {
          "indexed": false,
          "name": "expired",
          "type": "bool"
        }
      ],
      "name": "requestCreated",
      "type": "event",
      "signature": "0xed4201e552bdf135b5e59b9ac25fecb752e3197c810b47848d20876949fd0cfd"
    },
    {
      "anonymous": false,
      "inputs": [
        {
          "indexed": false,
          "name": "id",
          "type": "uint256"
        },
        {
          "indexed": false,
          "name": "acceptor",
          "type": "address"
        },
        {
          "indexed": false,
          "name": "name",
          "type": "string"
        },
        {
          "indexed": false,
          "name": "weight",
          "type": "uint256"
        },
        {
          "indexed": false,
          "name": "categories",
          "type": "bytes4"
        },
        {
          "indexed": false,
          "name": "flightNo",
          "type": "string"
        },
        {
          "indexed": false,
          "name": "expired",
          "type": "bool"
        }
      ],
      "name": "requestAccepted",
      "type": "event",
      "signature": "0x6cf0e167d5ce8008092f16b33d57869fceb1f9d02ebae2562de0acc1b8cca931"
    },
    {
      "constant": false,
      "inputs": [
        {
          "name": "_name",
          "type": "string"
        },
        {
          "name": "_weight",
          "type": "uint256"
        },
        {
          "name": "_categories",
          "type": "bytes4"
        },
        {
          "name": "_flightNo",
          "type": "string"
        }
      ],
      "name": "createRequest",
      "outputs": [],
      "payable": false,
      "stateMutability": "nonpayable",
      "type": "function",
      "signature": "0x91555eea"
    },
    {
      "constant": false,
      "inputs": [
        {
          "name": "_id",
          "type": "uint256"
        },
        {
          "name": "_acceptor",
          "type": "address"
        }
      ],
      "name": "acceptRequest",
      "outputs": [],
      "payable": true,
      "stateMutability": "payable",
      "type": "function",
      "signature": "0xdaba858a"
    }
  ],
  "bytecode": "0x608060405260006002553480156200001657600080fd5b506040805190810160405280601081526020017f4c7567676167652d436f6e74726163740000000000000000000000000000000081525060009080519060200190620000649291906200006b565b506200011a565b828054600181600116156101000203166002900490600052602060002090601f016020900481019282601f10620000ae57805160ff1916838001178555620000df565b82800160010185558215620000df579182015b82811115620000de578251825591602001919060010190620000c1565b5b509050620000ee9190620000f2565b5090565b6200011791905b8082111562000113576000816000905550600101620000f9565b5090565b90565b61147b806200012a6000396000f3fe60806040526004361061006d576000357c0100000000000000000000000000000000000000000000000000000000900463ffffffff16806306fdde03146100725780635badbe4c1461010257806381d12c581461012d57806391555eea146102de578063daba858a14610470575b600080fd5b34801561007e57600080fd5b506100876104be565b6040518080602001828103825283818151815260200191508051906020019080838360005b838110156100c75780820151818401526020810190506100ac565b50505050905090810190601f1680156100f45780820380516001836020036101000a031916815260200191505b509250505060405180910390f35b34801561010e57600080fd5b5061011761055c565b6040518082815260200191505060405180910390f35b34801561013957600080fd5b506101666004803603602081101561015057600080fd5b8101908080359060200190929190505050610562565b604051808881526020018773ffffffffffffffffffffffffffffffffffffffff1673ffffffffffffffffffffffffffffffffffffffff16815260200180602001868152602001857bffffffffffffffffffffffffffffffffffffffffffffffffffffffff19167bffffffffffffffffffffffffffffffffffffffffffffffffffffffff191681526020018060200184151515158152602001838103835288818151815260200191508051906020019080838360005b8381101561023657808201518184015260208101905061021b565b50505050905090810190601f1680156102635780820380516001836020036101000a031916815260200191505b50838103825285818151815260200191508051906020019080838360005b8381101561029c578082015181840152602081019050610281565b50505050905090810190601f1680156102c95780820380516001836020036101000a031916815260200191505b50995050505050505050505060405180910390f35b3480156102ea57600080fd5b5061046e6004803603608081101561030157600080fd5b810190808035906020019064010000000081111561031e57600080fd5b82018360208201111561033057600080fd5b8035906020019184600183028401116401000000008311171561035257600080fd5b91908080601f016020809104026020016040519081016040528093929190818152602001838380828437600081840152601f19601f8201169050808301925050505050505091929192908035906020019092919080357bffffffffffffffffffffffffffffffffffffffffffffffffffffffff19169060200190929190803590602001906401000000008111156103e857600080fd5b8201836020820111156103fa57600080fd5b8035906020019184600183028401116401000000008311171561041c57600080fd5b91908080601f016020809104026020016040519081016040528093929190818152602001838380828437600081840152601f19601f82011690508083019250505050505050919291929050505061072a565b005b6104bc6004803603604081101561048657600080fd5b8101908080359060200190929190803573ffffffffffffffffffffffffffffffffffffffff169060200190929190505050610b53565b005b60008054600181600116156101000203166002900480601f0160208091040260200160405190810160405280929190818152602001828054600181600116156101000203166002900480156105545780601f1061052957610100808354040283529160200191610554565b820191906000526020600020905b81548152906001019060200180831161053757829003601f168201915b505050505081565b60025481565b60016020528060005260406000206000915090508060000154908060010160009054906101000a900473ffffffffffffffffffffffffffffffffffffffff1690806002018054600181600116156101000203166002900480601f01602080910402602001604051908101604052809291908181526020018280546001816001161561010002031660029004801561063a5780601f1061060f5761010080835404028352916020019161063a565b820191906000526020600020905b81548152906001019060200180831161061d57829003601f168201915b5050505050908060030154908060040160009054906101000a90047c01000000000000000000000000000000000000000000000000000000000290806005018054600181600116156101000203166002900480601f01602080910402602001604051908101604052809291908181526020018280546001816001161561010002031660029004801561070d5780601f106106e25761010080835404028352916020019161070d565b820191906000526020600020905b8154815290600101906020018083116106f057829003601f168201915b5050505050908060060160009054906101000a900460ff16905087565b600084511115156107a3576040517f08c379a000000000000000000000000000000000000000000000000000000000815260040180806020018281038252600c8152602001807f496e76616c6964204e616d65000000000000000000000000000000000000000081525060200191505060405180910390fd5b60008311151561081b576040517f08c379a000000000000000000000000000000000000000000000000000000000815260040180806020018281038252600e8152602001807f496e76616c69642057656967687400000000000000000000000000000000000081525060200191505060405180910390fd5b60026000815480929190600101919050555060e0604051908101604052806002548152602001600073ffffffffffffffffffffffffffffffffffffffff168152602001858152602001848152602001837bffffffffffffffffffffffffffffffffffffffffffffffffffffffff19168152602001828152602001600015158152506001600060025481526020019081526020016000206000820151816000015560208201518160010160006101000a81548173ffffffffffffffffffffffffffffffffffffffff021916908373ffffffffffffffffffffffffffffffffffffffff160217905550604082015181600201908051906020019061091e929190611335565b506060820151816003015560808201518160040160006101000a81548163ffffffff02191690837c01000000000000000000000000000000000000000000000000000000009004021790555060a0820151816005019080519060200190610986929190611335565b5060c08201518160060160006101000a81548160ff0219169083151502179055509050507fed4201e552bdf135b5e59b9ac25fecb752e3197c810b47848d20876949fd0cfd6002546000868686866000604051808881526020018773ffffffffffffffffffffffffffffffffffffffff1673ffffffffffffffffffffffffffffffffffffffff16815260200180602001868152602001857bffffffffffffffffffffffffffffffffffffffffffffffffffffffff19167bffffffffffffffffffffffffffffffffffffffffffffffffffffffff191681526020018060200184151515158152602001838103835288818151815260200191508051906020019080838360005b83811015610aa6578082015181840152602081019050610a8b565b50505050905090810190601f168015610ad35780820380516001836020036101000a031916815260200191505b50838103825285818151815260200191508051906020019080838360005b83811015610b0c578082015181840152602081019050610af1565b50505050905090810190601f168015610b395780820380516001836020036101000a031916815260200191505b50995050505050505050505060405180910390a150505050565b610b5b6113b5565b6001600084815260200190815260200160002060e06040519081016040529081600082015481526020016001820160009054906101000a900473ffffffffffffffffffffffffffffffffffffffff1673ffffffffffffffffffffffffffffffffffffffff1673ffffffffffffffffffffffffffffffffffffffff168152602001600282018054600181600116156101000203166002900480601f016020809104026020016040519081016040528092919081815260200182805460018160011615610100020316600290048015610c735780601f10610c4857610100808354040283529160200191610c73565b820191906000526020600020905b815481529060010190602001808311610c5657829003601f168201915b50505050508152602001600382015481526020016004820160009054906101000a90047c0100000000000000000000000000000000000000000000000000000000027bffffffffffffffffffffffffffffffffffffffffffffffffffffffff19167bffffffffffffffffffffffffffffffffffffffffffffffffffffffff19168152602001600582018054600181600116156101000203166002900480601f016020809104026020016040519081016040528092919081815260200182805460018160011615610100020316600290048015610d905780601f10610d6557610100808354040283529160200191610d90565b820191906000526020600020905b815481529060010190602001808311610d7357829003601f168201915b505050505081526020016006820160009054906101000a900460ff161515151581525050905081816020019073ffffffffffffffffffffffffffffffffffffffff16908173ffffffffffffffffffffffffffffffffffffffff168152505060008160000151118015610e085750600254816000015111155b1515610e7c576040517f08c379a000000000000000000000000000000000000000000000000000000000815260040180806020018281038252600a8152602001807f496e76616c69642049440000000000000000000000000000000000000000000081525060200191505060405180910390fd5b80606001513410151515610ef8576040517f08c379a000000000000000000000000000000000000000000000000000000000815260040180806020018281038252600d8152602001807f496e76616c69642056616c75650000000000000000000000000000000000000081525060200191505060405180910390fd5b8060c00151151515610f72576040517f08c379a00000000000000000000000000000000000000000000000000000000081526004018080602001828103825260188152602001807f5265717565737420616c7265616479206163636570746564000000000000000081525060200191505060405180910390fd5b3373ffffffffffffffffffffffffffffffffffffffff168273ffffffffffffffffffffffffffffffffffffffff1614151515611016576040517f08c379a000000000000000000000000000000000000000000000000000000000815260040180806020018281038252601b8152602001807f5265717565737465722069732073616d652061732073656e646572000000000081525060200191505060405180910390fd5b60018160c001901515908115158152505080600160008581526020019081526020016000206000820151816000015560208201518160010160006101000a81548173ffffffffffffffffffffffffffffffffffffffff021916908373ffffffffffffffffffffffffffffffffffffffff16021790555060408201518160020190805190602001906110a8929190611335565b506060820151816003015560808201518160040160006101000a81548163ffffffff02191690837c01000000000000000000000000000000000000000000000000000000009004021790555060a0820151816005019080519060200190611110929190611335565b5060c08201518160060160006101000a81548160ff0219169083151502179055509050508173ffffffffffffffffffffffffffffffffffffffff166108fc349081150290604051600060405180830381858888f1935050505015801561117a573d6000803e3d6000fd5b507f6cf0e167d5ce8008092f16b33d57869fceb1f9d02ebae2562de0acc1b8cca931600254338360400151846060015185608001518660a001518760c00151604051808881526020018773ffffffffffffffffffffffffffffffffffffffff1673ffffffffffffffffffffffffffffffffffffffff16815260200180602001868152602001857bffffffffffffffffffffffffffffffffffffffffffffffffffffffff19167bffffffffffffffffffffffffffffffffffffffffffffffffffffffff191681526020018060200184151515158152602001838103835288818151815260200191508051906020019080838360005b8381101561128957808201518184015260208101905061126e565b50505050905090810190601f1680156112b65780820380516001836020036101000a031916815260200191505b50838103825285818151815260200191508051906020019080838360005b838110156112ef5780820151818401526020810190506112d4565b50505050905090810190601f16801561131c5780820380516001836020036101000a031916815260200191505b50995050505050505050505060405180910390a1505050565b828054600181600116156101000203166002900490600052602060002090601f016020900481019282601f1061137657805160ff19168380011785556113a4565b828001600101855582156113a4579182015b828111156113a3578251825591602001919060010190611388565b5b5090506113b1919061142a565b5090565b60e06040519081016040528060008152602001600073ffffffffffffffffffffffffffffffffffffffff168152602001606081526020016000815260200160007bffffffffffffffffffffffffffffffffffffffffffffffffffffffff19168152602001606081526020016000151581525090565b61144c91905b80821115611448576000816000905550600101611430565b5090565b9056fea165627a7a72305820cd114ff6578a57fcfa79127a9ffe2ac74271a5d4f74fbafb254ee254501a41860029",
  "source": "pragma solidity ^0.5.0;\r\n\r\ncontract Luggage {\r\n    string public name;\r\n    enum Categories {food,clothing,electronics,other}\r\n    struct request {\r\n        uint id;\r\n        address payable acceptor;\r\n        string name;\r\n        uint weight; // Assumes every bag is separate\r\n        bytes4 categories;\r\n        string flightNo;\r\n        bool expired;\r\n    }\r\n\r\n    event requestCreated (\r\n        uint id,\r\n        address payable acceptor,\r\n        string name,\r\n        uint weight,\r\n        bytes4 categories,\r\n        string flightNo,\r\n        bool expired\r\n    );\r\n\r\n    event requestAccepted (\r\n        uint id,\r\n        address payable acceptor,\r\n        string name,\r\n        uint weight,\r\n        bytes4 categories,\r\n        string flightNo,\r\n        bool expired\r\n    );\r\n    mapping(uint => request) public requests;\r\n\r\n    uint public requestCount = 0;\r\n\r\n    constructor() public {\r\n        name = \"Luggage-Contract\";\r\n    }\r\n    function createRequest(string memory _name,uint _weight,bytes4 _categories,string memory _flightNo) public {\r\n        require(bytes(_name).length > 0,\"Invalid Name\");\r\n        require(_weight > 0,\"Invalid Weight\");\r\n        requestCount ++;\r\n        requests[requestCount] = request(requestCount, address(0), _name,_weight,_categories,_flightNo,false);\r\n        emit requestCreated(requestCount, address(0), _name,_weight,_categories,_flightNo,false);\r\n    }\r\n\r\n    function acceptRequest(uint _id,address payable _acceptor) public payable {\r\n        request memory _request = requests[_id];        //Get the request\r\n        _request.acceptor = _acceptor;\r\n        require(_request.id > 0 && _request.id <= requestCount, \"Invalid ID\");\r\n        require(msg.value >= _request.weight, \"Invalid Value\");\r\n        require(!_request.expired, \"Request already accepted\");\r\n        require(_acceptor != msg.sender, \"Requester is same as sender\");\r\n        _request.expired = true;\r\n        requests[_id] = _request;\r\n        address(_acceptor).transfer(msg.value);\r\n        emit requestAccepted(requestCount, msg.sender, _request.name, _request.weight, _request.categories,_request.flightNo, _request.expired);\r\n    }\r\n\r\n}",
  "sourcePath": "D:/WORK/PROJECTS_and_HACKATHONS/Luggage-Blockchain/src/contracts/Luggage.sol",
  "compiler": {
    "name": "solc",
    "version": "0.5.0+commit.1d4f565a.Emscripten.clang"
  },
  "schemaVersion": "3.0.2",
  "updatedAt": "2019-11-10T03:09:15.168Z",
  "devdoc": {
    "methods": {}
  },
  "userdoc": {
    "methods": {}
  }
}