{
  "contractName": "Luggage",
  "abi": [
    {
      "constant": true,
      "inputs": [],
      "name": "name",
      "outputs": [
        {
          "name": "",
          "type": "string"
        }
      ],
      "payable": false,
      "stateMutability": "view",
      "type": "function",
      "signature": "0x06fdde03"
    },
    {
      "constant": true,
      "inputs": [],
      "name": "requestCount",
      "outputs": [
        {
          "name": "",
          "type": "uint256"
        }
      ],
      "payable": false,
      "stateMutability": "view",
      "type": "function",
      "signature": "0x5badbe4c"
    },
    {
      "constant": true,
      "inputs": [
        {
          "name": "",
          "type": "uint256"
        }
      ],
      "name": "requests",
      "outputs": [
        {
          "name": "id",
          "type": "uint256"
        },
        {
          "name": "acceptor",
          "type": "address"
        },
        {
          "name": "name",
          "type": "string"
        },
        {
          "name": "weight",
          "type": "uint256"
        },
        {
          "name": "categories",
          "type": "bytes4"
        },
        {
          "name": "expired",
          "type": "bool"
        }
      ],
      "payable": false,
      "stateMutability": "view",
      "type": "function",
      "signature": "0x81d12c58"
    },
    {
      "inputs": [],
      "payable": false,
      "stateMutability": "nonpayable",
      "type": "constructor",
      "signature": "constructor"
    },
    {
      "anonymous": false,
      "inputs": [
        {
          "indexed": false,
          "name": "id",
          "type": "uint256"
        },
        {
          "indexed": false,
          "name": "acceptor",
          "type": "address"
        },
        {
          "indexed": false,
          "name": "name",
          "type": "string"
        },
        {
          "indexed": false,
          "name": "weight",
          "type": "uint256"
        },
        {
          "indexed": false,
          "name": "categories",
          "type": "bytes4"
        },
        {
          "indexed": false,
          "name": "expired",
          "type": "bool"
        }
      ],
      "name": "requestCreated",
      "type": "event",
      "signature": "0xa78bafcada84d00d904aa5662e1ca3a0b007885ab08c433fb18652bcaa857ac2"
    },
    {
      "anonymous": false,
      "inputs": [
        {
          "indexed": false,
          "name": "id",
          "type": "uint256"
        },
        {
          "indexed": false,
          "name": "acceptor",
          "type": "address"
        },
        {
          "indexed": false,
          "name": "name",
          "type": "string"
        },
        {
          "indexed": false,
          "name": "weight",
          "type": "uint256"
        },
        {
          "indexed": false,
          "name": "categories",
          "type": "bytes4"
        },
        {
          "indexed": false,
          "name": "expired",
          "type": "bool"
        }
      ],
      "name": "requestAccepted",
      "type": "event",
      "signature": "0xc79a298973bb720300371553ce7a9ac9ce228226225051bd64a4989a039ceef9"
    },
    {
      "constant": false,
      "inputs": [
        {
          "name": "_name",
          "type": "string"
        },
        {
          "name": "_weight",
          "type": "uint256"
        },
        {
          "name": "_categories",
          "type": "bytes4"
        }
      ],
      "name": "createRequest",
      "outputs": [],
      "payable": false,
      "stateMutability": "nonpayable",
      "type": "function",
      "signature": "0x53344c09"
    },
    {
      "constant": false,
      "inputs": [
        {
          "name": "_id",
          "type": "uint256"
        },
        {
          "name": "_acceptor",
          "type": "address"
        }
      ],
      "name": "acceptRequest",
      "outputs": [],
      "payable": true,
      "stateMutability": "payable",
      "type": "function",
      "signature": "0xdaba858a"
    }
  ],
  "bytecode": "0x6080604052600060025534801561001557600080fd5b506040805190810160405280601081526020017f4c7567676167652d436f6e74726163740000000000000000000000000000000081525060009080519060200190610061929190610067565b5061010c565b828054600181600116156101000203166002900490600052602060002090601f016020900481019282601f106100a857805160ff19168380011785556100d6565b828001600101855582156100d6579182015b828111156100d55782518255916020019190600101906100ba565b5b5090506100e391906100e7565b5090565b61010991905b808211156101055760008160009055506001016100ed565b5090565b90565b611118806200011c6000396000f3fe60806040526004361061006d576000357c0100000000000000000000000000000000000000000000000000000000900463ffffffff16806306fdde031461007257806353344c09146101025780635badbe4c146101fd57806381d12c5814610228578063daba858a1461036d575b600080fd5b34801561007e57600080fd5b506100876103bb565b6040518080602001828103825283818151815260200191508051906020019080838360005b838110156100c75780820151818401526020810190506100ac565b50505050905090810190601f1680156100f45780820380516001836020036101000a031916815260200191505b509250505060405180910390f35b34801561010e57600080fd5b506101fb6004803603606081101561012557600080fd5b810190808035906020019064010000000081111561014257600080fd5b82018360208201111561015457600080fd5b8035906020019184600183028401116401000000008311171561017657600080fd5b91908080601f016020809104026020016040519081016040528093929190818152602001838380828437600081840152601f19601f8201169050808301925050505050505091929192908035906020019092919080357bffffffffffffffffffffffffffffffffffffffffffffffffffffffff19169060200190929190505050610459565b005b34801561020957600080fd5b506102126107f1565b6040518082815260200191505060405180910390f35b34801561023457600080fd5b506102616004803603602081101561024b57600080fd5b81019080803590602001909291905050506107f7565b604051808781526020018673ffffffffffffffffffffffffffffffffffffffff1673ffffffffffffffffffffffffffffffffffffffff16815260200180602001858152602001847bffffffffffffffffffffffffffffffffffffffffffffffffffffffff19167bffffffffffffffffffffffffffffffffffffffffffffffffffffffff1916815260200183151515158152602001828103825286818151815260200191508051906020019080838360005b8381101561032d578082015181840152602081019050610312565b50505050905090810190601f16801561035a5780820380516001836020036101000a031916815260200191505b5097505050505050505060405180910390f35b6103b96004803603604081101561038357600080fd5b8101908080359060200190929190803573ffffffffffffffffffffffffffffffffffffffff169060200190929190505050610921565b005b60008054600181600116156101000203166002900480601f0160208091040260200160405190810160405280929190818152602001828054600181600116156101000203166002900480156104515780601f1061042657610100808354040283529160200191610451565b820191906000526020600020905b81548152906001019060200180831161043457829003601f168201915b505050505081565b600083511115156104d2576040517f08c379a000000000000000000000000000000000000000000000000000000000815260040180806020018281038252600c8152602001807f496e76616c6964204e616d65000000000000000000000000000000000000000081525060200191505060405180910390fd5b60008211151561054a576040517f08c379a000000000000000000000000000000000000000000000000000000000815260040180806020018281038252600e8152602001807f496e76616c69642057656967687400000000000000000000000000000000000081525060200191505060405180910390fd5b60026000815480929190600101919050555060c0604051908101604052806002548152602001600073ffffffffffffffffffffffffffffffffffffffff168152602001848152602001838152602001827bffffffffffffffffffffffffffffffffffffffffffffffffffffffff19168152602001600015158152506001600060025481526020019081526020016000206000820151816000015560208201518160010160006101000a81548173ffffffffffffffffffffffffffffffffffffffff021916908373ffffffffffffffffffffffffffffffffffffffff1602179055506040820151816002019080519060200190610647929190610fd9565b506060820151816003015560808201518160040160006101000a81548163ffffffff02191690837c01000000000000000000000000000000000000000000000000000000009004021790555060a08201518160040160046101000a81548160ff0219169083151502179055509050507fa78bafcada84d00d904aa5662e1ca3a0b007885ab08c433fb18652bcaa857ac260025460008585856000604051808781526020018673ffffffffffffffffffffffffffffffffffffffff1673ffffffffffffffffffffffffffffffffffffffff16815260200180602001858152602001847bffffffffffffffffffffffffffffffffffffffffffffffffffffffff19167bffffffffffffffffffffffffffffffffffffffffffffffffffffffff1916815260200183151515158152602001828103825286818151815260200191508051906020019080838360005b838110156107ad578082015181840152602081019050610792565b50505050905090810190601f1680156107da5780820380516001836020036101000a031916815260200191505b5097505050505050505060405180910390a1505050565b60025481565b60016020528060005260406000206000915090508060000154908060010160009054906101000a900473ffffffffffffffffffffffffffffffffffffffff1690806002018054600181600116156101000203166002900480601f0160208091040260200160405190810160405280929190818152602001828054600181600116156101000203166002900480156108cf5780601f106108a4576101008083540402835291602001916108cf565b820191906000526020600020905b8154815290600101906020018083116108b257829003601f168201915b5050505050908060030154908060040160009054906101000a90047c010000000000000000000000000000000000000000000000000000000002908060040160049054906101000a900460ff16905086565b610929611059565b6001600084815260200190815260200160002060c06040519081016040529081600082015481526020016001820160009054906101000a900473ffffffffffffffffffffffffffffffffffffffff1673ffffffffffffffffffffffffffffffffffffffff1673ffffffffffffffffffffffffffffffffffffffff168152602001600282018054600181600116156101000203166002900480601f016020809104026020016040519081016040528092919081815260200182805460018160011615610100020316600290048015610a415780601f10610a1657610100808354040283529160200191610a41565b820191906000526020600020905b815481529060010190602001808311610a2457829003601f168201915b50505050508152602001600382015481526020016004820160009054906101000a90047c0100000000000000000000000000000000000000000000000000000000027bffffffffffffffffffffffffffffffffffffffffffffffffffffffff19167bffffffffffffffffffffffffffffffffffffffffffffffffffffffff191681526020016004820160049054906101000a900460ff1615151515815250509050600033905082826020019073ffffffffffffffffffffffffffffffffffffffff16908173ffffffffffffffffffffffffffffffffffffffff168152505060008260000151118015610b395750600254826000015111155b1515610bad576040517f08c379a000000000000000000000000000000000000000000000000000000000815260040180806020018281038252600a8152602001807f496e76616c69642049440000000000000000000000000000000000000000000081525060200191505060405180910390fd5b81606001513410151515610c29576040517f08c379a000000000000000000000000000000000000000000000000000000000815260040180806020018281038252600d8152602001807f496e76616c69642056616c75650000000000000000000000000000000000000081525060200191505060405180910390fd5b8160a00151151515610ca3576040517f08c379a00000000000000000000000000000000000000000000000000000000081526004018080602001828103825260188152602001807f5265717565737420616c7265616479206163636570746564000000000000000081525060200191505060405180910390fd5b3373ffffffffffffffffffffffffffffffffffffffff168373ffffffffffffffffffffffffffffffffffffffff1614151515610d47576040517f08c379a000000000000000000000000000000000000000000000000000000000815260040180806020018281038252601b8152602001807f5265717565737465722069732073616d652061732073656e646572000000000081525060200191505060405180910390fd5b60018260a001901515908115158152505081600160008681526020019081526020016000206000820151816000015560208201518160010160006101000a81548173ffffffffffffffffffffffffffffffffffffffff021916908373ffffffffffffffffffffffffffffffffffffffff1602179055506040820151816002019080519060200190610dd9929190610fd9565b506060820151816003015560808201518160040160006101000a81548163ffffffff02191690837c01000000000000000000000000000000000000000000000000000000009004021790555060a08201518160040160046101000a81548160ff0219169083151502179055509050508273ffffffffffffffffffffffffffffffffffffffff166108fc349081150290604051600060405180830381858888f19350505050158015610e8e573d6000803e3d6000fd5b507fc79a298973bb720300371553ce7a9ac9ce228226225051bd64a4989a039ceef9600254828460400151856060015186608001518760a00151604051808781526020018673ffffffffffffffffffffffffffffffffffffffff1673ffffffffffffffffffffffffffffffffffffffff16815260200180602001858152602001847bffffffffffffffffffffffffffffffffffffffffffffffffffffffff19167bffffffffffffffffffffffffffffffffffffffffffffffffffffffff1916815260200183151515158152602001828103825286818151815260200191508051906020019080838360005b83811015610f94578082015181840152602081019050610f79565b50505050905090810190601f168015610fc15780820380516001836020036101000a031916815260200191505b5097505050505050505060405180910390a150505050565b828054600181600116156101000203166002900490600052602060002090601f016020900481019282601f1061101a57805160ff1916838001178555611048565b82800160010185558215611048579182015b8281111561104757825182559160200191906001019061102c565b5b50905061105591906110c7565b5090565b60c06040519081016040528060008152602001600073ffffffffffffffffffffffffffffffffffffffff168152602001606081526020016000815260200160007bffffffffffffffffffffffffffffffffffffffffffffffffffffffff191681526020016000151581525090565b6110e991905b808211156110e55760008160009055506001016110cd565b5090565b9056fea165627a7a72305820afe06066075116a6dc233be9fe69c213a9852a1a017940d2e7be938aeaab18970029",
  "source": "pragma solidity ^0.5.0;\r\n\r\ncontract Luggage {\r\n    string public name;\r\n    enum Categories {food,clothing,electronics,other}\r\n    struct request {\r\n        uint id;\r\n        address payable acceptor;\r\n        string name;\r\n        uint weight; // Assumes every bag is separate\r\n        bytes4 categories;\r\n        bool expired;\r\n    }\r\n\r\n    event requestCreated (\r\n        uint id,\r\n        address payable acceptor,\r\n        string name,\r\n        uint weight,\r\n        bytes4 categories,\r\n        bool expired\r\n    );\r\n\r\n    event requestAccepted (\r\n        uint id,\r\n        address payable acceptor,\r\n        string name,\r\n        uint weight,\r\n        bytes4 categories,\r\n        bool expired\r\n    );\r\n    mapping(uint => request) public requests;\r\n\r\n    uint public requestCount = 0;\r\n\r\n    constructor() public {\r\n        name = \"Luggage-Contract\";\r\n    }\r\n    function createRequest(string memory _name,uint _weight,bytes4 _categories) public {\r\n        require(bytes(_name).length > 0,\"Invalid Name\");\r\n        require(_weight > 0,\"Invalid Weight\");\r\n        requestCount ++;\r\n        requests[requestCount] = request(requestCount, address(0), _name,_weight,_categories,false);\r\n        emit requestCreated(requestCount, address(0), _name,_weight,_categories,false);\r\n    }\r\n\r\n    function acceptRequest(uint _id,address payable _acceptor) public payable {\r\n        request memory _request = requests[_id];        //Get the request\r\n        address payable _payer = msg.sender;    //Get the person making the payment\r\n        _request.acceptor = _acceptor;\r\n        require(_request.id > 0 && _request.id <= requestCount, \"Invalid ID\");\r\n        require(msg.value >= _request.weight, \"Invalid Value\");\r\n        require(!_request.expired, \"Request already accepted\");\r\n        require(_acceptor != msg.sender, \"Requester is same as sender\");\r\n        _request.expired = true;\r\n        requests[_id] = _request;\r\n        address(_acceptor).transfer(msg.value);\r\n        emit requestAccepted(requestCount, _payer, _request.name, _request.weight, _request.categories, _request.expired);\r\n    }\r\n\r\n}",
  "sourcePath": "d:/Rakathon/Luggage-Blockchain/src/contracts/Luggage.sol",
  "compiler": {
    "name": "solc",
    "version": "0.5.0+commit.1d4f565a.Emscripten.clang"
  },
  "schemaVersion": "3.0.2",
  "updatedAt": "2019-11-09T15:03:29.882Z",
  "devdoc": {
    "methods": {}
  },
  "userdoc": {
    "methods": {}
  }
}